{
  "_format": "hh-sol-artifact-1",
  "contractName": "Deployer",
  "sourceName": "contracts/Deployer.sol",
  "abi": [
    {
      "inputs": [
        {
          "internalType": "address",
          "name": "sourceChainMinter_",
          "type": "address"
        },
        {
          "internalType": "address",
          "name": "proofOfMembershipVerifier_",
          "type": "address"
        }
      ],
      "stateMutability": "nonpayable",
      "type": "constructor"
    },
    {
      "anonymous": false,
      "inputs": [
        {
          "indexed": true,
          "internalType": "address",
          "name": "company",
          "type": "address"
        },
        {
          "indexed": true,
          "internalType": "string",
          "name": "name",
          "type": "string"
        },
        {
          "indexed": true,
          "internalType": "string",
          "name": "imageURL",
          "type": "string"
        },
        {
          "indexed": false,
          "internalType": "string",
          "name": "description",
          "type": "string"
        }
      ],
      "name": "newCompany",
      "type": "event"
    },
    {
      "anonymous": false,
      "inputs": [
        {
          "indexed": true,
          "internalType": "address",
          "name": "school",
          "type": "address"
        },
        {
          "indexed": true,
          "internalType": "string",
          "name": "name",
          "type": "string"
        },
        {
          "indexed": true,
          "internalType": "string",
          "name": "imageURL",
          "type": "string"
        },
        {
          "indexed": false,
          "internalType": "string",
          "name": "description",
          "type": "string"
        }
      ],
      "name": "newSchool",
      "type": "event"
    },
    {
      "inputs": [
        {
          "internalType": "uint256",
          "name": "organisationType",
          "type": "uint256"
        },
        {
          "internalType": "string",
          "name": "name",
          "type": "string"
        },
        {
          "internalType": "string",
          "name": "symbol",
          "type": "string"
        },
        {
          "internalType": "address",
          "name": "operator",
          "type": "address"
        },
        {
          "internalType": "string",
          "name": "imageURL_",
          "type": "string"
        },
        {
          "internalType": "string",
          "name": "description_",
          "type": "string"
        }
      ],
      "name": "deployOrganisation",
      "outputs": [
        {
          "internalType": "address",
          "name": "",
          "type": "address"
        }
      ],
      "stateMutability": "nonpayable",
      "type": "function"
    },
    {
      "inputs": [],
      "name": "deployer",
      "outputs": [
        {
          "internalType": "address",
          "name": "",
          "type": "address"
        }
      ],
      "stateMutability": "view",
      "type": "function"
    },
    {
      "inputs": [],
      "name": "proofOfMembershipVerifier",
      "outputs": [
        {
          "internalType": "address",
          "name": "",
          "type": "address"
        }
      ],
      "stateMutability": "view",
      "type": "function"
    },
    {
      "inputs": [],
      "name": "sourceChainMinter",
      "outputs": [
        {
          "internalType": "address",
          "name": "",
          "type": "address"
        }
      ],
      "stateMutability": "view",
      "type": "function"
    }
  ],
  "bytecode": "0x608060405234801561001057600080fd5b506040516144e43803806144e48339818101604052810190610032919061015e565b33600160006101000a81548173ffffffffffffffffffffffffffffffffffffffff021916908373ffffffffffffffffffffffffffffffffffffffff160217905550816000806101000a81548173ffffffffffffffffffffffffffffffffffffffff021916908373ffffffffffffffffffffffffffffffffffffffff16021790555080600260006101000a81548173ffffffffffffffffffffffffffffffffffffffff021916908373ffffffffffffffffffffffffffffffffffffffff160217905550505061019e565b600080fd5b600073ffffffffffffffffffffffffffffffffffffffff82169050919050565b600061012b82610100565b9050919050565b61013b81610120565b811461014657600080fd5b50565b60008151905061015881610132565b92915050565b60008060408385031215610175576101746100fb565b5b600061018385828601610149565b925050602061019485828601610149565b9150509250929050565b614337806101ad6000396000f3fe60806040523480156200001157600080fd5b5060043610620000525760003560e01c8063d5f394881462000057578063e088bbd11462000079578063e71b88ef146200009b578063ec068f1314620000d1575b600080fd5b62000061620000f3565b6040516200007091906200036c565b60405180910390f35b6200008362000119565b6040516200009291906200036c565b60405180910390f35b620000b96004803603810190620000b391906200056b565b6200013d565b604051620000c891906200036c565b60405180910390f35b620000db620002f3565b604051620000ea91906200036c565b60405180910390f35b600160009054906101000a900473ffffffffffffffffffffffffffffffffffffffff1681565b60008054906101000a900473ffffffffffffffffffffffffffffffffffffffff1681565b60008087878787878760008054906101000a900473ffffffffffffffffffffffffffffffffffffffff16600260009054906101000a900473ffffffffffffffffffffffffffffffffffffffff16604051620001989062000319565b620001ab9897969594939291906200071d565b604051809103906000f080158015620001c8573d6000803e3d6000fd5b509050600188036200025a5783604051620001e4919062000809565b604051809103902087604051620001fc919062000809565b60405180910390208273ffffffffffffffffffffffffffffffffffffffff167fe975ce806e0fc48202608973e25a92eea9300b592f652043a604115a3af3171c866040516200024c919062000822565b60405180910390a4620002e5565b60028803620002e4578360405162000273919062000809565b6040518091039020876040516200028b919062000809565b60405180910390208273ffffffffffffffffffffffffffffffffffffffff167f0e28d88ea1f6786fc9c3fd67495a54fa0b5314e896d79d823be19bc399e78ce686604051620002db919062000822565b60405180910390a45b5b809150509695505050505050565b600260009054906101000a900473ffffffffffffffffffffffffffffffffffffffff1681565b613abb806200084783390190565b600073ffffffffffffffffffffffffffffffffffffffff82169050919050565b6000620003548262000327565b9050919050565b620003668162000347565b82525050565b60006020820190506200038360008301846200035b565b92915050565b6000604051905090565b600080fd5b600080fd5b6000819050919050565b620003b2816200039d565b8114620003be57600080fd5b50565b600081359050620003d281620003a7565b92915050565b600080fd5b600080fd5b6000601f19601f8301169050919050565b7f4e487b7100000000000000000000000000000000000000000000000000000000600052604160045260246000fd5b6200042d82620003e2565b810181811067ffffffffffffffff821117156200044f576200044e620003f3565b5b80604052505050565b60006200046462000389565b905062000472828262000422565b919050565b600067ffffffffffffffff821115620004955762000494620003f3565b5b620004a082620003e2565b9050602081019050919050565b82818337600083830152505050565b6000620004d3620004cd8462000477565b62000458565b905082815260208101848484011115620004f257620004f1620003dd565b5b620004ff848285620004ad565b509392505050565b600082601f8301126200051f576200051e620003d8565b5b813562000531848260208601620004bc565b91505092915050565b620005458162000347565b81146200055157600080fd5b50565b60008135905062000565816200053a565b92915050565b60008060008060008060c087890312156200058b576200058a62000393565b5b60006200059b89828a01620003c1565b965050602087013567ffffffffffffffff811115620005bf57620005be62000398565b5b620005cd89828a0162000507565b955050604087013567ffffffffffffffff811115620005f157620005f062000398565b5b620005ff89828a0162000507565b94505060606200061289828a0162000554565b935050608087013567ffffffffffffffff81111562000636576200063562000398565b5b6200064489828a0162000507565b92505060a087013567ffffffffffffffff81111562000668576200066762000398565b5b6200067689828a0162000507565b9150509295509295509295565b6200068e816200039d565b82525050565b600081519050919050565b600082825260208201905092915050565b60005b83811015620006d0578082015181840152602081019050620006b3565b60008484015250505050565b6000620006e98262000694565b620006f581856200069f565b935062000707818560208601620006b0565b6200071281620003e2565b840191505092915050565b60006101008201905062000735600083018b62000683565b818103602083015262000749818a620006dc565b905081810360408301526200075f8189620006dc565b90506200077060608301886200035b565b8181036080830152620007848187620006dc565b905081810360a08301526200079a8186620006dc565b9050620007ab60c08301856200035b565b620007ba60e08301846200035b565b9998505050505050505050565b600081905092915050565b6000620007df8262000694565b620007eb8185620007c7565b9350620007fd818560208601620006b0565b80840191505092915050565b6000620008178284620007d2565b915081905092915050565b600060208201905081810360008301526200083e8184620006dc565b90509291505056fe60806040523480156200001157600080fd5b5060405162003abb38038062003abb83398181016040528101906200003791906200038e565b868681600090816200004a919062000714565b5080600190816200005c919062000714565b5050508760098190555084600660006101000a81548173ffffffffffffffffffffffffffffffffffffffff021916908373ffffffffffffffffffffffffffffffffffffffff16021790555083600a9081620000b8919062000714565b5082600b9081620000ca919062000714565b5081600c60006101000a81548173ffffffffffffffffffffffffffffffffffffffff021916908373ffffffffffffffffffffffffffffffffffffffff16021790555080600d60006101000a81548173ffffffffffffffffffffffffffffffffffffffff021916908373ffffffffffffffffffffffffffffffffffffffff1602179055505050505050505050620007fb565b6000604051905090565b600080fd5b600080fd5b6000819050919050565b62000184816200016f565b81146200019057600080fd5b50565b600081519050620001a48162000179565b92915050565b600080fd5b600080fd5b6000601f19601f8301169050919050565b7f4e487b7100000000000000000000000000000000000000000000000000000000600052604160045260246000fd5b620001ff82620001b4565b810181811067ffffffffffffffff82111715620002215762000220620001c5565b5b80604052505050565b6000620002366200015b565b9050620002448282620001f4565b919050565b600067ffffffffffffffff821115620002675762000266620001c5565b5b6200027282620001b4565b9050602081019050919050565b60005b838110156200029f57808201518184015260208101905062000282565b60008484015250505050565b6000620002c2620002bc8462000249565b6200022a565b905082815260208101848484011115620002e157620002e0620001af565b5b620002ee8482856200027f565b509392505050565b600082601f8301126200030e576200030d620001aa565b5b815162000320848260208601620002ab565b91505092915050565b600073ffffffffffffffffffffffffffffffffffffffff82169050919050565b6000620003568262000329565b9050919050565b620003688162000349565b81146200037457600080fd5b50565b60008151905062000388816200035d565b92915050565b600080600080600080600080610100898b031215620003b257620003b162000165565b5b6000620003c28b828c0162000193565b985050602089015167ffffffffffffffff811115620003e657620003e56200016a565b5b620003f48b828c01620002f6565b975050604089015167ffffffffffffffff8111156200041857620004176200016a565b5b620004268b828c01620002f6565b9650506060620004398b828c0162000377565b955050608089015167ffffffffffffffff8111156200045d576200045c6200016a565b5b6200046b8b828c01620002f6565b94505060a089015167ffffffffffffffff8111156200048f576200048e6200016a565b5b6200049d8b828c01620002f6565b93505060c0620004b08b828c0162000377565b92505060e0620004c38b828c0162000377565b9150509295985092959890939650565b600081519050919050565b7f4e487b7100000000000000000000000000000000000000000000000000000000600052602260045260246000fd5b600060028204905060018216806200052657607f821691505b6020821081036200053c576200053b620004de565b5b50919050565b60008190508160005260206000209050919050565b60006020601f8301049050919050565b600082821b905092915050565b600060088302620005a67fffffffffffffffffffffffffffffffffffffffffffffffffffffffffffffffff8262000567565b620005b2868362000567565b95508019841693508086168417925050509392505050565b6000819050919050565b6000620005f5620005ef620005e9846200016f565b620005ca565b6200016f565b9050919050565b6000819050919050565b6200061183620005d4565b620006296200062082620005fc565b84845462000574565b825550505050565b600090565b6200064062000631565b6200064d81848462000606565b505050565b5b8181101562000675576200066960008262000636565b60018101905062000653565b5050565b601f821115620006c4576200068e8162000542565b620006998462000557565b81016020851015620006a9578190505b620006c1620006b88562000557565b83018262000652565b50505b505050565b600082821c905092915050565b6000620006e960001984600802620006c9565b1980831691505092915050565b6000620007048383620006d6565b9150826002028217905092915050565b6200071f82620004d3565b67ffffffffffffffff8111156200073b576200073a620001c5565b5b6200074782546200050d565b6200075482828562000679565b600060209050601f8311600181146200078c576000841562000777578287015190505b620007838582620006f6565b865550620007f3565b601f1984166200079c8662000542565b60005b82811015620007c6578489015182556001820191506020850194506020810190506200079f565b86831015620007e65784890151620007e2601f891682620006d6565b8355505b6001600288020188555050505b505050505050565b6132b0806200080b6000396000f3fe608060405234801561001057600080fd5b506004361061014d5760003560e01c80637284e416116100c3578063b88d4fde1161007c578063b88d4fde14610376578063b90497e014610392578063c42625b1146103b0578063c87b56dd146103cc578063e985e9c5146103fc578063fb4683401461042c5761014d565b80637284e416146102c85780638051e61f146102e65780638ac30e4c1461030257806395d89b411461032057806398eb8d931461033e578063a22cb4651461035a5761014d565b806323b872dd1161011557806323b872dd146102085780632f6874b21461022457806342842e0e1461022e5780636352211e1461024a57806363ec508f1461027a57806370a08231146102985761014d565b806301ffc9a71461015257806306fdde0314610182578063081812fc146101a0578063095ea7b3146101d05780630b1ca49a146101ec575b600080fd5b61016c6004803603810190610167919061205d565b61044a565b60405161017991906120a5565b60405180910390f35b61018a61052c565b6040516101979190612150565b60405180910390f35b6101ba60048036038101906101b591906121a8565b6105be565b6040516101c79190612216565b60405180910390f35b6101ea60048036038101906101e5919061225d565b610604565b005b6102066004803603810190610201919061229d565b61071b565b005b610222600480360381019061021d91906122ca565b6109a0565b005b61022c610a00565b005b610248600480360381019061024391906122ca565b610b9b565b005b610264600480360381019061025f91906121a8565b610bbb565b6040516102719190612216565b60405180910390f35b610282610c6c565b60405161028f9190612340565b60405180910390f35b6102b260048036038101906102ad919061229d565b610c71565b6040516102bf919061236a565b60405180910390f35b6102d0610d28565b6040516102dd9190612150565b60405180910390f35b61030060048036038101906102fb919061229d565b610db6565b005b61030a610f06565b604051610317919061236a565b60405180910390f35b610328610f0c565b6040516103359190612150565b60405180910390f35b6103586004803603810190610353919061229d565b610f9e565b005b610374600480360381019061036f91906123b1565b611198565b005b610390600480360381019061038b9190612526565b6111ae565b005b61039a611210565b6040516103a79190612150565b60405180910390f35b6103ca60048036038101906103c59190612676565b61129e565b005b6103e660048036038101906103e191906121a8565b61133f565b6040516103f39190612150565b60405180910390f35b61041660048036038101906104119190612757565b6113a7565b60405161042391906120a5565b60405180910390f35b61043461143b565b604051610441919061236a565b60405180910390f35b60007f80ac58cd000000000000000000000000000000000000000000000000000000007bffffffffffffffffffffffffffffffffffffffffffffffffffffffff1916827bffffffffffffffffffffffffffffffffffffffffffffffffffffffff1916148061051557507f5b5e139f000000000000000000000000000000000000000000000000000000007bffffffffffffffffffffffffffffffffffffffffffffffffffffffff1916827bffffffffffffffffffffffffffffffffffffffffffffffffffffffff1916145b80610525575061052482611448565b5b9050919050565b60606000805461053b906127c6565b80601f0160208091040260200160405190810160405280929190818152602001828054610567906127c6565b80156105b45780601f10610589576101008083540402835291602001916105b4565b820191906000526020600020905b81548152906001019060200180831161059757829003601f168201915b5050505050905090565b60006105c9826114b2565b6004600083815260200190815260200160002060009054906101000a900473ffffffffffffffffffffffffffffffffffffffff169050919050565b600061060f82610bbb565b90508073ffffffffffffffffffffffffffffffffffffffff168373ffffffffffffffffffffffffffffffffffffffff160361067f576040517f08c379a000000000000000000000000000000000000000000000000000000000815260040161067690612869565b60405180910390fd5b8073ffffffffffffffffffffffffffffffffffffffff1661069e6114fd565b73ffffffffffffffffffffffffffffffffffffffff1614806106cd57506106cc816106c76114fd565b6113a7565b5b61070c576040517f08c379a0000000000000000000000000000000000000000000000000000000008152600401610703906128fb565b60405180910390fd5b6107168383611505565b505050565b3373ffffffffffffffffffffffffffffffffffffffff16600660009054906101000a900473ffffffffffffffffffffffffffffffffffffffff1673ffffffffffffffffffffffffffffffffffffffff16146107ab576040517f08c379a00000000000000000000000000000000000000000000000000000000081526004016107a290612967565b60405180910390fd5b60005b60078054905081101561099c578173ffffffffffffffffffffffffffffffffffffffff16600782815481106107e6576107e5612987565b5b9060005260206000200160009054906101000a900473ffffffffffffffffffffffffffffffffffffffff1673ffffffffffffffffffffffffffffffffffffffff16036109895760008190505b600160078054905061084491906129e5565b81101561090557600760018261085a9190612a19565b8154811061086b5761086a612987565b5b9060005260206000200160009054906101000a900473ffffffffffffffffffffffffffffffffffffffff16600782815481106108aa576108a9612987565b5b9060005260206000200160006101000a81548173ffffffffffffffffffffffffffffffffffffffff021916908373ffffffffffffffffffffffffffffffffffffffff16021790555080806108fd90612a4d565b915050610832565b50600780548061091857610917612a95565b5b6001900381819060005260206000200160006101000a81549073ffffffffffffffffffffffffffffffffffffffff021916905590557f6e76fb4c77256006d9c38ec7d82b45a8c8f3c27b1d6766fffc42dfb8de6844928260405161097c9190612216565b60405180910390a161099c565b808061099490612a4d565b9150506107ae565b5050565b6109b16109ab6114fd565b826115be565b6109f0576040517f08c379a00000000000000000000000000000000000000000000000000000000081526004016109e790612b36565b60405180910390fd5b6109fb838383611653565b505050565b600d60009054906101000a900473ffffffffffffffffffffffffffffffffffffffff1673ffffffffffffffffffffffffffffffffffffffff166331eeeb1a336040518263ffffffff1660e01b8152600401610a5b9190612216565b602060405180830381865afa158015610a78573d6000803e3d6000fd5b505050506040513d601f19601f82011682018060405250810190610a9c9190612b6b565b610adb576040517f08c379a0000000000000000000000000000000000000000000000000000000008152600401610ad290612c0a565b60405180910390fd5b610ae7336008546118b9565b600854600e60003373ffffffffffffffffffffffffffffffffffffffff1673ffffffffffffffffffffffffffffffffffffffff1681526020019081526020016000208190555033600f6000600854815260200190815260200160002060006101000a81548173ffffffffffffffffffffffffffffffffffffffff021916908373ffffffffffffffffffffffffffffffffffffffff16021790555060086000815480929190610b9490612a4d565b9190505550565b610bb6838383604051806020016040528060008152506111ae565b505050565b6000806002600084815260200190815260200160002060009054906101000a900473ffffffffffffffffffffffffffffffffffffffff169050600073ffffffffffffffffffffffffffffffffffffffff168173ffffffffffffffffffffffffffffffffffffffff1603610c63576040517f08c379a0000000000000000000000000000000000000000000000000000000008152600401610c5a90612c76565b60405180910390fd5b80915050919050565b600181565b60008073ffffffffffffffffffffffffffffffffffffffff168273ffffffffffffffffffffffffffffffffffffffff1603610ce1576040517f08c379a0000000000000000000000000000000000000000000000000000000008152600401610cd890612d08565b60405180910390fd5b600360008373ffffffffffffffffffffffffffffffffffffffff1673ffffffffffffffffffffffffffffffffffffffff168152602001908152602001600020549050919050565b600b8054610d35906127c6565b80601f0160208091040260200160405190810160405280929190818152602001828054610d61906127c6565b8015610dae5780601f10610d8357610100808354040283529160200191610dae565b820191906000526020600020905b815481529060010190602001808311610d9157829003601f168201915b505050505081565b3373ffffffffffffffffffffffffffffffffffffffff16600660009054906101000a900473ffffffffffffffffffffffffffffffffffffffff1673ffffffffffffffffffffffffffffffffffffffff1614610e46576040517f08c379a0000000000000000000000000000000000000000000000000000000008152600401610e3d90612967565b60405180910390fd5b600660009054906101000a900473ffffffffffffffffffffffffffffffffffffffff1673ffffffffffffffffffffffffffffffffffffffff168173ffffffffffffffffffffffffffffffffffffffff167ff61c7dc31840c410c468404f84f4807a8ae35cadb18f9aafe6ed3b79419259e460405160405180910390a380600660006101000a81548173ffffffffffffffffffffffffffffffffffffffff021916908373ffffffffffffffffffffffffffffffffffffffff16021790555050565b60095481565b606060018054610f1b906127c6565b80601f0160208091040260200160405190810160405280929190818152602001828054610f47906127c6565b8015610f945780601f10610f6957610100808354040283529160200191610f94565b820191906000526020600020905b815481529060010190602001808311610f7757829003601f168201915b5050505050905090565b3373ffffffffffffffffffffffffffffffffffffffff16600660009054906101000a900473ffffffffffffffffffffffffffffffffffffffff1673ffffffffffffffffffffffffffffffffffffffff161461102e576040517f08c379a000000000000000000000000000000000000000000000000000000000815260040161102590612967565b60405180910390fd5b6007819080600181540180825580915050600190039060005260206000200160009091909190916101000a81548173ffffffffffffffffffffffffffffffffffffffff021916908373ffffffffffffffffffffffffffffffffffffffff16021790555061109d816008546118b9565b600854600e60008373ffffffffffffffffffffffffffffffffffffffff1673ffffffffffffffffffffffffffffffffffffffff1681526020019081526020016000208190555080600f6000600854815260200190815260200160002060006101000a81548173ffffffffffffffffffffffffffffffffffffffff021916908373ffffffffffffffffffffffffffffffffffffffff1602179055506008548173ffffffffffffffffffffffffffffffffffffffff167f92517022a17236908894e7bb88f7fe7b5403940026a5ed18733f1b91197702b160405160405180910390a36008600081548092919061119090612a4d565b919050555050565b6111aa6111a36114fd565b8383611a92565b5050565b6111bf6111b96114fd565b836115be565b6111fe576040517f08c379a00000000000000000000000000000000000000000000000000000000081526004016111f590612b36565b60405180910390fd5b61120a84848484611bfe565b50505050565b600a805461121d906127c6565b80601f0160208091040260200160405190810160405280929190818152602001828054611249906127c6565b80156112965780601f1061126b57610100808354040283529160200191611296565b820191906000526020600020905b81548152906001019060200180831161127957829003601f168201915b505050505081565b600c60009054906101000a900473ffffffffffffffffffffffffffffffffffffffff1673ffffffffffffffffffffffffffffffffffffffff1663da483e37873388888888886040518863ffffffff1660e01b81526004016113059796959493929190612d28565b600060405180830381600087803b15801561131f57600080fd5b505af1158015611333573d6000803e3d6000fd5b50505050505050505050565b606061134a826114b2565b6000611354611c5a565b90506000815111611374576040518060200160405280600081525061139f565b8061137e84611c71565b60405160200161138f929190612de8565b6040516020818303038152906040525b915050919050565b6000600560008473ffffffffffffffffffffffffffffffffffffffff1673ffffffffffffffffffffffffffffffffffffffff16815260200190815260200160002060008373ffffffffffffffffffffffffffffffffffffffff1673ffffffffffffffffffffffffffffffffffffffff16815260200190815260200160002060009054906101000a900460ff16905092915050565b6000600780549050905090565b60007f01ffc9a7000000000000000000000000000000000000000000000000000000007bffffffffffffffffffffffffffffffffffffffffffffffffffffffff1916827bffffffffffffffffffffffffffffffffffffffffffffffffffffffff1916149050919050565b6114bb81611dd1565b6114fa576040517f08c379a00000000000000000000000000000000000000000000000000000000081526004016114f190612c76565b60405180910390fd5b50565b600033905090565b816004600083815260200190815260200160002060006101000a81548173ffffffffffffffffffffffffffffffffffffffff021916908373ffffffffffffffffffffffffffffffffffffffff160217905550808273ffffffffffffffffffffffffffffffffffffffff1661157883610bbb565b73ffffffffffffffffffffffffffffffffffffffff167f8c5be1e5ebec7d5bd14f71427d1e84f3dd0314c0f7b2291e5b200ac8c7c3b92560405160405180910390a45050565b6000806115ca83610bbb565b90508073ffffffffffffffffffffffffffffffffffffffff168473ffffffffffffffffffffffffffffffffffffffff16148061160c575061160b81856113a7565b5b8061164a57508373ffffffffffffffffffffffffffffffffffffffff16611632846105be565b73ffffffffffffffffffffffffffffffffffffffff16145b91505092915050565b8273ffffffffffffffffffffffffffffffffffffffff1661167382610bbb565b73ffffffffffffffffffffffffffffffffffffffff16146116c9576040517f08c379a00000000000000000000000000000000000000000000000000000000081526004016116c090612e7e565b60405180910390fd5b600073ffffffffffffffffffffffffffffffffffffffff168273ffffffffffffffffffffffffffffffffffffffff1603611738576040517f08c379a000000000000000000000000000000000000000000000000000000000815260040161172f90612f10565b60405180910390fd5b611743838383611e3d565b61174e600082611505565b6001600360008573ffffffffffffffffffffffffffffffffffffffff1673ffffffffffffffffffffffffffffffffffffffff168152602001908152602001600020600082825461179e91906129e5565b925050819055506001600360008473ffffffffffffffffffffffffffffffffffffffff1673ffffffffffffffffffffffffffffffffffffffff16815260200190815260200160002060008282546117f59190612a19565b92505081905550816002600083815260200190815260200160002060006101000a81548173ffffffffffffffffffffffffffffffffffffffff021916908373ffffffffffffffffffffffffffffffffffffffff160217905550808273ffffffffffffffffffffffffffffffffffffffff168473ffffffffffffffffffffffffffffffffffffffff167fddf252ad1be2c89b69c2b068fc378daa952ba7f163c4a11628f55a4df523b3ef60405160405180910390a46118b4838383611e42565b505050565b600073ffffffffffffffffffffffffffffffffffffffff168273ffffffffffffffffffffffffffffffffffffffff1603611928576040517f08c379a000000000000000000000000000000000000000000000000000000000815260040161191f90612f7c565b60405180910390fd5b61193181611dd1565b15611971576040517f08c379a000000000000000000000000000000000000000000000000000000000815260040161196890612fe8565b60405180910390fd5b61197d60008383611e3d565b6001600360008473ffffffffffffffffffffffffffffffffffffffff1673ffffffffffffffffffffffffffffffffffffffff16815260200190815260200160002060008282546119cd9190612a19565b92505081905550816002600083815260200190815260200160002060006101000a81548173ffffffffffffffffffffffffffffffffffffffff021916908373ffffffffffffffffffffffffffffffffffffffff160217905550808273ffffffffffffffffffffffffffffffffffffffff16600073ffffffffffffffffffffffffffffffffffffffff167fddf252ad1be2c89b69c2b068fc378daa952ba7f163c4a11628f55a4df523b3ef60405160405180910390a4611a8e60008383611e42565b5050565b8173ffffffffffffffffffffffffffffffffffffffff168373ffffffffffffffffffffffffffffffffffffffff1603611b00576040517f08c379a0000000000000000000000000000000000000000000000000000000008152600401611af790613054565b60405180910390fd5b80600560008573ffffffffffffffffffffffffffffffffffffffff1673ffffffffffffffffffffffffffffffffffffffff16815260200190815260200160002060008473ffffffffffffffffffffffffffffffffffffffff1673ffffffffffffffffffffffffffffffffffffffff16815260200190815260200160002060006101000a81548160ff0219169083151502179055508173ffffffffffffffffffffffffffffffffffffffff168373ffffffffffffffffffffffffffffffffffffffff167f17307eab39ab6107e8899845ad3d59bd9653f200f220920489ca2b5937696c3183604051611bf191906120a5565b60405180910390a3505050565b611c09848484611653565b611c1584848484611e47565b611c54576040517f08c379a0000000000000000000000000000000000000000000000000000000008152600401611c4b906130e6565b60405180910390fd5b50505050565b606060405180602001604052806000815250905090565b606060008203611cb8576040518060400160405280600181526020017f30000000000000000000000000000000000000000000000000000000000000008152509050611dcc565b600082905060005b60008214611cea578080611cd390612a4d565b915050600a82611ce39190613135565b9150611cc0565b60008167ffffffffffffffff811115611d0657611d056123fb565b5b6040519080825280601f01601f191660200182016040528015611d385781602001600182028036833780820191505090505b5090505b60008514611dc557600182611d5191906129e5565b9150600a85611d609190613166565b6030611d6c9190612a19565b60f81b818381518110611d8257611d81612987565b5b60200101907effffffffffffffffffffffffffffffffffffffffffffffffffffffffffffff1916908160001a905350600a85611dbe9190613135565b9450611d3c565b8093505050505b919050565b60008073ffffffffffffffffffffffffffffffffffffffff166002600084815260200190815260200160002060009054906101000a900473ffffffffffffffffffffffffffffffffffffffff1673ffffffffffffffffffffffffffffffffffffffff1614159050919050565b505050565b505050565b6000611e688473ffffffffffffffffffffffffffffffffffffffff16611fce565b15611fc1578373ffffffffffffffffffffffffffffffffffffffff1663150b7a02611e916114fd565b8786866040518563ffffffff1660e01b8152600401611eb394939291906131ec565b6020604051808303816000875af1925050508015611eef57506040513d601f19601f82011682018060405250810190611eec919061324d565b60015b611f71573d8060008114611f1f576040519150601f19603f3d011682016040523d82523d6000602084013e611f24565b606091505b506000815103611f69576040517f08c379a0000000000000000000000000000000000000000000000000000000008152600401611f60906130e6565b60405180910390fd5b805181602001fd5b63150b7a0260e01b7bffffffffffffffffffffffffffffffffffffffffffffffffffffffff1916817bffffffffffffffffffffffffffffffffffffffffffffffffffffffff191614915050611fc6565b600190505b949350505050565b6000808273ffffffffffffffffffffffffffffffffffffffff163b119050919050565b6000604051905090565b600080fd5b600080fd5b60007fffffffff0000000000000000000000000000000000000000000000000000000082169050919050565b61203a81612005565b811461204557600080fd5b50565b60008135905061205781612031565b92915050565b60006020828403121561207357612072611ffb565b5b600061208184828501612048565b91505092915050565b60008115159050919050565b61209f8161208a565b82525050565b60006020820190506120ba6000830184612096565b92915050565b600081519050919050565b600082825260208201905092915050565b60005b838110156120fa5780820151818401526020810190506120df565b60008484015250505050565b6000601f19601f8301169050919050565b6000612122826120c0565b61212c81856120cb565b935061213c8185602086016120dc565b61214581612106565b840191505092915050565b6000602082019050818103600083015261216a8184612117565b905092915050565b6000819050919050565b61218581612172565b811461219057600080fd5b50565b6000813590506121a28161217c565b92915050565b6000602082840312156121be576121bd611ffb565b5b60006121cc84828501612193565b91505092915050565b600073ffffffffffffffffffffffffffffffffffffffff82169050919050565b6000612200826121d5565b9050919050565b612210816121f5565b82525050565b600060208201905061222b6000830184612207565b92915050565b61223a816121f5565b811461224557600080fd5b50565b60008135905061225781612231565b92915050565b6000806040838503121561227457612273611ffb565b5b600061228285828601612248565b925050602061229385828601612193565b9150509250929050565b6000602082840312156122b3576122b2611ffb565b5b60006122c184828501612248565b91505092915050565b6000806000606084860312156122e3576122e2611ffb565b5b60006122f186828701612248565b935050602061230286828701612248565b925050604061231386828701612193565b9150509250925092565b600067ffffffffffffffff82169050919050565b61233a8161231d565b82525050565b60006020820190506123556000830184612331565b92915050565b61236481612172565b82525050565b600060208201905061237f600083018461235b565b92915050565b61238e8161208a565b811461239957600080fd5b50565b6000813590506123ab81612385565b92915050565b600080604083850312156123c8576123c7611ffb565b5b60006123d685828601612248565b92505060206123e78582860161239c565b9150509250929050565b600080fd5b600080fd5b7f4e487b7100000000000000000000000000000000000000000000000000000000600052604160045260246000fd5b61243382612106565b810181811067ffffffffffffffff82111715612452576124516123fb565b5b80604052505050565b6000612465611ff1565b9050612471828261242a565b919050565b600067ffffffffffffffff821115612491576124906123fb565b5b61249a82612106565b9050602081019050919050565b82818337600083830152505050565b60006124c96124c484612476565b61245b565b9050828152602081018484840111156124e5576124e46123f6565b5b6124f08482856124a7565b509392505050565b600082601f83011261250d5761250c6123f1565b5b813561251d8482602086016124b6565b91505092915050565b600080600080608085870312156125405761253f611ffb565b5b600061254e87828801612248565b945050602061255f87828801612248565b935050604061257087828801612193565b925050606085013567ffffffffffffffff81111561259157612590612000565b5b61259d878288016124f8565b91505092959194509250565b6125b28161231d565b81146125bd57600080fd5b50565b6000813590506125cf816125a9565b92915050565b600067ffffffffffffffff8211156125f0576125ef6123fb565b5b6125f982612106565b9050602081019050919050565b6000612619612614846125d5565b61245b565b905082815260208101848484011115612635576126346123f6565b5b6126408482856124a7565b509392505050565b600082601f83011261265d5761265c6123f1565b5b813561266d848260208601612606565b91505092915050565b60008060008060008060c0878903121561269357612692611ffb565b5b60006126a189828a016125c0565b96505060206126b289828a0161239c565b95505060406126c389828a01612193565b945050606087013567ffffffffffffffff8111156126e4576126e3612000565b5b6126f089828a01612648565b935050608087013567ffffffffffffffff81111561271157612710612000565b5b61271d89828a01612648565b92505060a087013567ffffffffffffffff81111561273e5761273d612000565b5b61274a89828a01612648565b9150509295509295509295565b6000806040838503121561276e5761276d611ffb565b5b600061277c85828601612248565b925050602061278d85828601612248565b9150509250929050565b7f4e487b7100000000000000000000000000000000000000000000000000000000600052602260045260246000fd5b600060028204905060018216806127de57607f821691505b6020821081036127f1576127f0612797565b5b50919050565b7f4552433732313a20617070726f76616c20746f2063757272656e74206f776e6560008201527f7200000000000000000000000000000000000000000000000000000000000000602082015250565b60006128536021836120cb565b915061285e826127f7565b604082019050919050565b6000602082019050818103600083015261288281612846565b9050919050565b7f4552433732313a20617070726f76652063616c6c6572206973206e6f7420746f60008201527f6b656e206f776e6572206e6f7220617070726f76656420666f7220616c6c0000602082015250565b60006128e5603e836120cb565b91506128f082612889565b604082019050919050565b60006020820190508181036000830152612914816128d8565b9050919050565b7f6f6e6c794f776e65722100000000000000000000000000000000000000000000600082015250565b6000612951600a836120cb565b915061295c8261291b565b602082019050919050565b6000602082019050818103600083015261298081612944565b9050919050565b7f4e487b7100000000000000000000000000000000000000000000000000000000600052603260045260246000fd5b7f4e487b7100000000000000000000000000000000000000000000000000000000600052601160045260246000fd5b60006129f082612172565b91506129fb83612172565b9250828203905081811115612a1357612a126129b6565b5b92915050565b6000612a2482612172565b9150612a2f83612172565b9250828201905080821115612a4757612a466129b6565b5b92915050565b6000612a5882612172565b91507fffffffffffffffffffffffffffffffffffffffffffffffffffffffffffffffff8203612a8a57612a896129b6565b5b600182019050919050565b7f4e487b7100000000000000000000000000000000000000000000000000000000600052603160045260246000fd5b7f4552433732313a2063616c6c6572206973206e6f7420746f6b656e206f776e6560008201527f72206e6f7220617070726f766564000000000000000000000000000000000000602082015250565b6000612b20602e836120cb565b9150612b2b82612ac4565b604082019050919050565b60006020820190508181036000830152612b4f81612b13565b9050919050565b600081519050612b6581612385565b92915050565b600060208284031215612b8157612b80611ffb565b5b6000612b8f84828501612b56565b91505092915050565b7f41646472657373206973206e6f7420766572696669656420627920506f6c796760008201527f6f6e494400000000000000000000000000000000000000000000000000000000602082015250565b6000612bf46024836120cb565b9150612bff82612b98565b604082019050919050565b60006020820190508181036000830152612c2381612be7565b9050919050565b7f4552433732313a20696e76616c696420746f6b656e2049440000000000000000600082015250565b6000612c606018836120cb565b9150612c6b82612c2a565b602082019050919050565b60006020820190508181036000830152612c8f81612c53565b9050919050565b7f4552433732313a2061646472657373207a65726f206973206e6f74206120766160008201527f6c6964206f776e65720000000000000000000000000000000000000000000000602082015250565b6000612cf26029836120cb565b9150612cfd82612c96565b604082019050919050565b60006020820190508181036000830152612d2181612ce5565b9050919050565b600060e082019050612d3d600083018a612331565b612d4a6020830189612207565b612d576040830188612096565b612d64606083018761235b565b8181036080830152612d768186612117565b905081810360a0830152612d8a8185612117565b905081810360c0830152612d9e8184612117565b905098975050505050505050565b600081905092915050565b6000612dc2826120c0565b612dcc8185612dac565b9350612ddc8185602086016120dc565b80840191505092915050565b6000612df48285612db7565b9150612e008284612db7565b91508190509392505050565b7f4552433732313a207472616e736665722066726f6d20696e636f72726563742060008201527f6f776e6572000000000000000000000000000000000000000000000000000000602082015250565b6000612e686025836120cb565b9150612e7382612e0c565b604082019050919050565b60006020820190508181036000830152612e9781612e5b565b9050919050565b7f4552433732313a207472616e7366657220746f20746865207a65726f2061646460008201527f7265737300000000000000000000000000000000000000000000000000000000602082015250565b6000612efa6024836120cb565b9150612f0582612e9e565b604082019050919050565b60006020820190508181036000830152612f2981612eed565b9050919050565b7f4552433732313a206d696e7420746f20746865207a65726f2061646472657373600082015250565b6000612f666020836120cb565b9150612f7182612f30565b602082019050919050565b60006020820190508181036000830152612f9581612f59565b9050919050565b7f4552433732313a20746f6b656e20616c7265616479206d696e74656400000000600082015250565b6000612fd2601c836120cb565b9150612fdd82612f9c565b602082019050919050565b6000602082019050818103600083015261300181612fc5565b9050919050565b7f4552433732313a20617070726f766520746f2063616c6c657200000000000000600082015250565b600061303e6019836120cb565b915061304982613008565b602082019050919050565b6000602082019050818103600083015261306d81613031565b9050919050565b7f4552433732313a207472616e7366657220746f206e6f6e20455243373231526560008201527f63656976657220696d706c656d656e7465720000000000000000000000000000602082015250565b60006130d06032836120cb565b91506130db82613074565b604082019050919050565b600060208201905081810360008301526130ff816130c3565b9050919050565b7f4e487b7100000000000000000000000000000000000000000000000000000000600052601260045260246000fd5b600061314082612172565b915061314b83612172565b92508261315b5761315a613106565b5b828204905092915050565b600061317182612172565b915061317c83612172565b92508261318c5761318b613106565b5b828206905092915050565b600081519050919050565b600082825260208201905092915050565b60006131be82613197565b6131c881856131a2565b93506131d88185602086016120dc565b6131e181612106565b840191505092915050565b60006080820190506132016000830187612207565b61320e6020830186612207565b61321b604083018561235b565b818103606083015261322d81846131b3565b905095945050505050565b60008151905061324781612031565b92915050565b60006020828403121561326357613262611ffb565b5b600061327184828501613238565b9150509291505056fea26469706673582212205984ef42359ada92a44baea881e5abdac9c1d231f61e043545ff533c8bcc672664736f6c63430008100033a264697066735822122034b95571cd05f2dfba356fb1f6f6b9248c6850128be7509aaa9f1140ad1f857c64736f6c63430008100033",
  "linkReferences": {},
  "deployedLinkReferences": {}
}