{
  "_format": "hh-sol-artifact-1",
  "contractName": "DestinationMinter",
  "sourceName": "contracts/DestinationMinter.sol",
  "abi": [
    {
      "inputs": [
        {
          "internalType": "address",
          "name": "router",
          "type": "address"
        }
      ],
      "stateMutability": "nonpayable",
      "type": "constructor"
    },
    {
      "inputs": [
        {
          "internalType": "address",
          "name": "router",
          "type": "address"
        }
      ],
      "name": "InvalidRouter",
      "type": "error"
    },
    {
      "anonymous": false,
      "inputs": [],
      "name": "MintCallSuccessfull",
      "type": "event"
    },
    {
      "inputs": [
        {
          "components": [
            {
              "internalType": "bytes32",
              "name": "messageId",
              "type": "bytes32"
            },
            {
              "internalType": "uint64",
              "name": "sourceChainSelector",
              "type": "uint64"
            },
            {
              "internalType": "bytes",
              "name": "sender",
              "type": "bytes"
            },
            {
              "internalType": "bytes",
              "name": "data",
              "type": "bytes"
            },
            {
              "components": [
                {
                  "internalType": "address",
                  "name": "token",
                  "type": "address"
                },
                {
                  "internalType": "uint256",
                  "name": "amount",
                  "type": "uint256"
                }
              ],
              "internalType": "struct Client.EVMTokenAmount[]",
              "name": "destTokenAmounts",
              "type": "tuple[]"
            }
          ],
          "internalType": "struct Client.Any2EVMMessage",
          "name": "message",
          "type": "tuple"
        }
      ],
      "name": "ccipReceive",
      "outputs": [],
      "stateMutability": "nonpayable",
      "type": "function"
    },
    {
      "inputs": [],
      "name": "getRouter",
      "outputs": [
        {
          "internalType": "address",
          "name": "",
          "type": "address"
        }
      ],
      "stateMutability": "view",
      "type": "function"
    },
    {
      "inputs": [
        {
          "internalType": "address",
          "name": "nftAddress",
          "type": "address"
        }
      ],
      "name": "setupNFT",
      "outputs": [],
      "stateMutability": "nonpayable",
      "type": "function"
    },
    {
      "inputs": [
        {
          "internalType": "bytes4",
          "name": "interfaceId",
          "type": "bytes4"
        }
      ],
      "name": "supportsInterface",
      "outputs": [
        {
          "internalType": "bool",
          "name": "",
          "type": "bool"
        }
      ],
      "stateMutability": "pure",
      "type": "function"
    }
  ],
  "bytecode": "0x60a060405234801562000010575f80fd5b5060405162000cff38038062000cff83398181016040528101906200003691906200018b565b805f73ffffffffffffffffffffffffffffffffffffffff168173ffffffffffffffffffffffffffffffffffffffff1603620000aa575f6040517fd7f73334000000000000000000000000000000000000000000000000000000008152600401620000a19190620001cc565b60405180910390fd5b8073ffffffffffffffffffffffffffffffffffffffff1660808173ffffffffffffffffffffffffffffffffffffffff1681525050503360015f6101000a81548173ffffffffffffffffffffffffffffffffffffffff021916908373ffffffffffffffffffffffffffffffffffffffff16021790555050620001e7565b5f80fd5b5f73ffffffffffffffffffffffffffffffffffffffff82169050919050565b5f62000155826200012a565b9050919050565b620001678162000149565b811462000172575f80fd5b50565b5f8151905062000185816200015c565b92915050565b5f60208284031215620001a357620001a262000126565b5b5f620001b28482850162000175565b91505092915050565b620001c68162000149565b82525050565b5f602082019050620001e15f830184620001bb565b92915050565b608051610af8620002075f395f81816101a7015261024d0152610af85ff3fe608060405234801561000f575f80fd5b506004361061004a575f3560e01c806301ffc9a71461004e57806385572ffb1461007e578063b0f479a11461009a578063f2f4d4c2146100b8575b5f80fd5b6100686004803603810190610063919061046d565b6100d4565b60405161007591906104b2565b60405180910390f35b610098600480360381019061009391906104ed565b6101a5565b005b6100a261024a565b6040516100af9190610573565b60405180910390f35b6100d260048036038101906100cd91906105b6565b610271565b005b5f7f85572ffb000000000000000000000000000000000000000000000000000000007bffffffffffffffffffffffffffffffffffffffffffffffffffffffff1916827bffffffffffffffffffffffffffffffffffffffffffffffffffffffff1916148061019e57507f01ffc9a7000000000000000000000000000000000000000000000000000000007bffffffffffffffffffffffffffffffffffffffffffffffffffffffff1916827bffffffffffffffffffffffffffffffffffffffffffffffffffffffff1916145b9050919050565b7f000000000000000000000000000000000000000000000000000000000000000073ffffffffffffffffffffffffffffffffffffffff163373ffffffffffffffffffffffffffffffffffffffff161461023557336040517fd7f7333400000000000000000000000000000000000000000000000000000000815260040161022c9190610573565b60405180910390fd5b61024781610242906109b6565b610342565b50565b5f7f0000000000000000000000000000000000000000000000000000000000000000905090565b60015f9054906101000a900473ffffffffffffffffffffffffffffffffffffffff1673ffffffffffffffffffffffffffffffffffffffff163373ffffffffffffffffffffffffffffffffffffffff1614610300576040517f08c379a00000000000000000000000000000000000000000000000000000000081526004016102f790610a22565b60405180910390fd5b805f806101000a81548173ffffffffffffffffffffffffffffffffffffffff021916908373ffffffffffffffffffffffffffffffffffffffff16021790555050565b5f805f9054906101000a900473ffffffffffffffffffffffffffffffffffffffff1673ffffffffffffffffffffffffffffffffffffffff16826060015160405161038c9190610aac565b5f604051808303815f865af19150503d805f81146103c5576040519150601f19603f3d011682016040523d82523d5f602084013e6103ca565b606091505b50509050806103d7575f80fd5b7fa8bcb6a278444293ea5c0bce4a4734a060a5f557bb999d8a57c4f69e96f1fe8860405160405180910390a15050565b5f604051905090565b5f80fd5b5f80fd5b5f7fffffffff0000000000000000000000000000000000000000000000000000000082169050919050565b61044c81610418565b8114610456575f80fd5b50565b5f8135905061046781610443565b92915050565b5f6020828403121561048257610481610410565b5b5f61048f84828501610459565b91505092915050565b5f8115159050919050565b6104ac81610498565b82525050565b5f6020820190506104c55f8301846104a3565b92915050565b5f80fd5b5f60a082840312156104e4576104e36104cb565b5b81905092915050565b5f6020828403121561050257610501610410565b5b5f82013567ffffffffffffffff81111561051f5761051e610414565b5b61052b848285016104cf565b91505092915050565b5f73ffffffffffffffffffffffffffffffffffffffff82169050919050565b5f61055d82610534565b9050919050565b61056d81610553565b82525050565b5f6020820190506105865f830184610564565b92915050565b61059581610553565b811461059f575f80fd5b50565b5f813590506105b08161058c565b92915050565b5f602082840312156105cb576105ca610410565b5b5f6105d8848285016105a2565b91505092915050565b5f80fd5b5f601f19601f8301169050919050565b7f4e487b71000000000000000000000000000000000000000000000000000000005f52604160045260245ffd5b61062b826105e5565b810181811067ffffffffffffffff8211171561064a576106496105f5565b5b80604052505050565b5f61065c610407565b90506106688282610622565b919050565b5f80fd5b5f819050919050565b61068381610671565b811461068d575f80fd5b50565b5f8135905061069e8161067a565b92915050565b5f67ffffffffffffffff82169050919050565b6106c0816106a4565b81146106ca575f80fd5b50565b5f813590506106db816106b7565b92915050565b5f80fd5b5f80fd5b5f67ffffffffffffffff821115610703576107026105f5565b5b61070c826105e5565b9050602081019050919050565b828183375f83830152505050565b5f610739610734846106e9565b610653565b905082815260208101848484011115610755576107546106e5565b5b610760848285610719565b509392505050565b5f82601f83011261077c5761077b6106e1565b5b813561078c848260208601610727565b91505092915050565b5f67ffffffffffffffff8211156107af576107ae6105f5565b5b602082029050602081019050919050565b5f80fd5b5f819050919050565b6107d6816107c4565b81146107e0575f80fd5b50565b5f813590506107f1816107cd565b92915050565b5f6040828403121561080c5761080b6105e1565b5b6108166040610653565b90505f610825848285016105a2565b5f830152506020610838848285016107e3565b60208301525092915050565b5f61085661085184610795565b610653565b90508083825260208201905060408402830185811115610879576108786107c0565b5b835b818110156108a2578061088e88826107f7565b84526020840193505060408101905061087b565b5050509392505050565b5f82601f8301126108c0576108bf6106e1565b5b81356108d0848260208601610844565b91505092915050565b5f60a082840312156108ee576108ed6105e1565b5b6108f860a0610653565b90505f61090784828501610690565b5f83015250602061091a848285016106cd565b602083015250604082013567ffffffffffffffff81111561093e5761093d61066d565b5b61094a84828501610768565b604083015250606082013567ffffffffffffffff81111561096e5761096d61066d565b5b61097a84828501610768565b606083015250608082013567ffffffffffffffff81111561099e5761099d61066d565b5b6109aa848285016108ac565b60808301525092915050565b5f6109c136836108d9565b9050919050565b5f82825260208201905092915050565b7f4f6e6c79206f776e6572000000000000000000000000000000000000000000005f82015250565b5f610a0c600a836109c8565b9150610a17826109d8565b602082019050919050565b5f6020820190508181035f830152610a3981610a00565b9050919050565b5f81519050919050565b5f81905092915050565b5f5b83811015610a71578082015181840152602081019050610a56565b5f8484015250505050565b5f610a8682610a40565b610a908185610a4a565b9350610aa0818560208601610a54565b80840191505092915050565b5f610ab78284610a7c565b91508190509291505056fea26469706673582212203379cbf5a7bfe6fb07e948d6b2b4dcf775314d83b9a0099445f18676b1a9273964736f6c63430008150033",
  "linkReferences": {},
  "deployedLinkReferences": {}
}