{
  "_format": "hh-sol-artifact-1",
  "contractName": "JobListingNFT",
  "sourceName": "contracts/JobListingNFT.sol",
  "abi": [
    {
      "inputs": [
        {
          "internalType": "address",
          "name": "minter_",
          "type": "address"
        }
      ],
      "stateMutability": "nonpayable",
      "type": "constructor"
    },
    {
      "anonymous": false,
      "inputs": [
        {
          "indexed": true,
          "internalType": "address",
          "name": "owner",
          "type": "address"
        },
        {
          "indexed": true,
          "internalType": "address",
          "name": "approved",
          "type": "address"
        },
        {
          "indexed": true,
          "internalType": "uint256",
          "name": "tokenId",
          "type": "uint256"
        }
      ],
      "name": "Approval",
      "type": "event"
    },
    {
      "anonymous": false,
      "inputs": [
        {
          "indexed": true,
          "internalType": "address",
          "name": "owner",
          "type": "address"
        },
        {
          "indexed": true,
          "internalType": "address",
          "name": "operator",
          "type": "address"
        },
        {
          "indexed": false,
          "internalType": "bool",
          "name": "approved",
          "type": "bool"
        }
      ],
      "name": "ApprovalForAll",
      "type": "event"
    },
    {
      "anonymous": false,
      "inputs": [
        {
          "indexed": true,
          "internalType": "address",
          "name": "from",
          "type": "address"
        },
        {
          "indexed": true,
          "internalType": "address",
          "name": "to",
          "type": "address"
        },
        {
          "indexed": true,
          "internalType": "uint256",
          "name": "tokenId",
          "type": "uint256"
        }
      ],
      "name": "Transfer",
      "type": "event"
    },
    {
      "anonymous": false,
      "inputs": [
        {
          "indexed": true,
          "internalType": "address",
          "name": "applicant",
          "type": "address"
        },
        {
          "indexed": true,
          "internalType": "uint256",
          "name": "applicantID",
          "type": "uint256"
        },
        {
          "indexed": true,
          "internalType": "uint256",
          "name": "listingID",
          "type": "uint256"
        },
        {
          "indexed": false,
          "internalType": "string",
          "name": "profileURL",
          "type": "string"
        },
        {
          "indexed": false,
          "internalType": "string",
          "name": "email",
          "type": "string"
        },
        {
          "indexed": false,
          "internalType": "string",
          "name": "resumeURL",
          "type": "string"
        }
      ],
      "name": "newApplicant",
      "type": "event"
    },
    {
      "inputs": [
        {
          "internalType": "address",
          "name": "to",
          "type": "address"
        },
        {
          "internalType": "uint256",
          "name": "tokenId",
          "type": "uint256"
        }
      ],
      "name": "approve",
      "outputs": [],
      "stateMutability": "nonpayable",
      "type": "function"
    },
    {
      "inputs": [
        {
          "internalType": "address",
          "name": "owner",
          "type": "address"
        }
      ],
      "name": "balanceOf",
      "outputs": [
        {
          "internalType": "uint256",
          "name": "",
          "type": "uint256"
        }
      ],
      "stateMutability": "view",
      "type": "function"
    },
    {
      "inputs": [
        {
          "internalType": "uint256",
          "name": "tokenId",
          "type": "uint256"
        }
      ],
      "name": "getApproved",
      "outputs": [
        {
          "internalType": "address",
          "name": "",
          "type": "address"
        }
      ],
      "stateMutability": "view",
      "type": "function"
    },
    {
      "inputs": [
        {
          "internalType": "address",
          "name": "owner",
          "type": "address"
        },
        {
          "internalType": "address",
          "name": "operator",
          "type": "address"
        }
      ],
      "name": "isApprovedForAll",
      "outputs": [
        {
          "internalType": "bool",
          "name": "",
          "type": "bool"
        }
      ],
      "stateMutability": "view",
      "type": "function"
    },
    {
      "inputs": [
        {
          "internalType": "address",
          "name": "receiver",
          "type": "address"
        },
        {
          "internalType": "uint256",
          "name": "listingID",
          "type": "uint256"
        },
        {
          "internalType": "bytes",
          "name": "applicantData",
          "type": "bytes"
        }
      ],
      "name": "mint",
      "outputs": [],
      "stateMutability": "nonpayable",
      "type": "function"
    },
    {
      "inputs": [],
      "name": "name",
      "outputs": [
        {
          "internalType": "string",
          "name": "",
          "type": "string"
        }
      ],
      "stateMutability": "view",
      "type": "function"
    },
    {
      "inputs": [
        {
          "internalType": "uint256",
          "name": "tokenId",
          "type": "uint256"
        }
      ],
      "name": "ownerOf",
      "outputs": [
        {
          "internalType": "address",
          "name": "",
          "type": "address"
        }
      ],
      "stateMutability": "view",
      "type": "function"
    },
    {
      "inputs": [
        {
          "internalType": "address",
          "name": "from",
          "type": "address"
        },
        {
          "internalType": "address",
          "name": "to",
          "type": "address"
        },
        {
          "internalType": "uint256",
          "name": "tokenId",
          "type": "uint256"
        }
      ],
      "name": "safeTransferFrom",
      "outputs": [],
      "stateMutability": "nonpayable",
      "type": "function"
    },
    {
      "inputs": [
        {
          "internalType": "address",
          "name": "from",
          "type": "address"
        },
        {
          "internalType": "address",
          "name": "to",
          "type": "address"
        },
        {
          "internalType": "uint256",
          "name": "tokenId",
          "type": "uint256"
        },
        {
          "internalType": "bytes",
          "name": "data",
          "type": "bytes"
        }
      ],
      "name": "safeTransferFrom",
      "outputs": [],
      "stateMutability": "nonpayable",
      "type": "function"
    },
    {
      "inputs": [
        {
          "internalType": "address",
          "name": "operator",
          "type": "address"
        },
        {
          "internalType": "bool",
          "name": "approved",
          "type": "bool"
        }
      ],
      "name": "setApprovalForAll",
      "outputs": [],
      "stateMutability": "nonpayable",
      "type": "function"
    },
    {
      "inputs": [
        {
          "internalType": "bytes4",
          "name": "interfaceId",
          "type": "bytes4"
        }
      ],
      "name": "supportsInterface",
      "outputs": [
        {
          "internalType": "bool",
          "name": "",
          "type": "bool"
        }
      ],
      "stateMutability": "view",
      "type": "function"
    },
    {
      "inputs": [],
      "name": "symbol",
      "outputs": [
        {
          "internalType": "string",
          "name": "",
          "type": "string"
        }
      ],
      "stateMutability": "view",
      "type": "function"
    },
    {
      "inputs": [
        {
          "internalType": "uint256",
          "name": "tokenId",
          "type": "uint256"
        }
      ],
      "name": "tokenURI",
      "outputs": [
        {
          "internalType": "string",
          "name": "",
          "type": "string"
        }
      ],
      "stateMutability": "view",
      "type": "function"
    },
    {
      "inputs": [
        {
          "internalType": "address",
          "name": "from",
          "type": "address"
        },
        {
          "internalType": "address",
          "name": "to",
          "type": "address"
        },
        {
          "internalType": "uint256",
          "name": "tokenId",
          "type": "uint256"
        }
      ],
      "name": "transferFrom",
      "outputs": [],
      "stateMutability": "nonpayable",
      "type": "function"
    }
  ],
  "bytecode": "0x608060405246600a5534801562000014575f80fd5b5060405162002c0138038062002c0183398181016040528101906200003a919062000177565b6040518060400160405280600f81526020017f4a6f624c697374696e67546f6b656e00000000000000000000000000000000008152506040518060400160405280600381526020017f4a4c540000000000000000000000000000000000000000000000000000000000815250815f9081620000b691906200040b565b508060019081620000c891906200040b565b5050508060075f6101000a81548173ffffffffffffffffffffffffffffffffffffffff021916908373ffffffffffffffffffffffffffffffffffffffff16021790555050620004ef565b5f80fd5b5f73ffffffffffffffffffffffffffffffffffffffff82169050919050565b5f620001418262000116565b9050919050565b620001538162000135565b81146200015e575f80fd5b50565b5f81519050620001718162000148565b92915050565b5f602082840312156200018f576200018e62000112565b5b5f6200019e8482850162000161565b91505092915050565b5f81519050919050565b7f4e487b71000000000000000000000000000000000000000000000000000000005f52604160045260245ffd5b7f4e487b71000000000000000000000000000000000000000000000000000000005f52602260045260245ffd5b5f60028204905060018216806200022357607f821691505b602082108103620002395762000238620001de565b5b50919050565b5f819050815f5260205f209050919050565b5f6020601f8301049050919050565b5f82821b905092915050565b5f600883026200029d7fffffffffffffffffffffffffffffffffffffffffffffffffffffffffffffffff8262000260565b620002a9868362000260565b95508019841693508086168417925050509392505050565b5f819050919050565b5f819050919050565b5f620002f3620002ed620002e784620002c1565b620002ca565b620002c1565b9050919050565b5f819050919050565b6200030e83620002d3565b620003266200031d82620002fa565b8484546200026c565b825550505050565b5f90565b6200033c6200032e565b6200034981848462000303565b505050565b5b818110156200037057620003645f8262000332565b6001810190506200034f565b5050565b601f821115620003bf5762000389816200023f565b620003948462000251565b81016020851015620003a4578190505b620003bc620003b38562000251565b8301826200034e565b50505b505050565b5f82821c905092915050565b5f620003e15f1984600802620003c4565b1980831691505092915050565b5f620003fb8383620003d0565b9150826002028217905092915050565b6200041682620001a7565b67ffffffffffffffff811115620004325762000431620001b1565b5b6200043e82546200020b565b6200044b82828562000374565b5f60209050601f83116001811462000481575f84156200046c578287015190505b620004788582620003ee565b865550620004e7565b601f19841662000491866200023f565b5f5b82811015620004ba5784890151825560018201915060208501945060208101905062000493565b86831015620004da5784890151620004d6601f891682620003d0565b8355505b6001600288020188555050505b505050505050565b61270480620004fd5f395ff3fe608060405234801561000f575f80fd5b50600436106100e8575f3560e01c806370a082311161008a578063a22cb46511610064578063a22cb46514610258578063b88d4fde14610274578063c87b56dd14610290578063e985e9c5146102c0576100e8565b806370a08231146101ee57806394d008ef1461021e57806395d89b411461023a576100e8565b8063095ea7b3116100c6578063095ea7b31461016a57806323b872dd1461018657806342842e0e146101a25780636352211e146101be576100e8565b806301ffc9a7146100ec57806306fdde031461011c578063081812fc1461013a575b5f80fd5b610106600480360381019061010191906116a8565b6102f0565b60405161011391906116ed565b60405180910390f35b6101246103d1565b6040516101319190611790565b60405180910390f35b610154600480360381019061014f91906117e3565b610460565b604051610161919061184d565b60405180910390f35b610184600480360381019061017f9190611890565b6104a2565b005b6101a0600480360381019061019b91906118ce565b6105b8565b005b6101bc60048036038101906101b791906118ce565b610618565b005b6101d860048036038101906101d391906117e3565b610637565b6040516101e5919061184d565b60405180910390f35b6102086004803603810190610203919061191e565b6106e3565b6040516102159190611958565b60405180910390f35b61023860048036038101906102339190611a9d565b610797565b005b6102426108d0565b60405161024f9190611790565b60405180910390f35b610272600480360381019061026d9190611b33565b610960565b005b61028e60048036038101906102899190611b71565b610976565b005b6102aa60048036038101906102a591906117e3565b6109d8565b6040516102b79190611790565b60405180910390f35b6102da60048036038101906102d59190611bf1565b610a3d565b6040516102e791906116ed565b60405180910390f35b5f7f80ac58cd000000000000000000000000000000000000000000000000000000007bffffffffffffffffffffffffffffffffffffffffffffffffffffffff1916827bffffffffffffffffffffffffffffffffffffffffffffffffffffffff191614806103ba57507f5b5e139f000000000000000000000000000000000000000000000000000000007bffffffffffffffffffffffffffffffffffffffffffffffffffffffff1916827bffffffffffffffffffffffffffffffffffffffffffffffffffffffff1916145b806103ca57506103c982610acb565b5b9050919050565b60605f80546103df90611c5c565b80601f016020809104026020016040519081016040528092919081815260200182805461040b90611c5c565b80156104565780601f1061042d57610100808354040283529160200191610456565b820191905f5260205f20905b81548152906001019060200180831161043957829003601f168201915b5050505050905090565b5f61046a82610b34565b60045f8381526020019081526020015f205f9054906101000a900473ffffffffffffffffffffffffffffffffffffffff169050919050565b5f6104ac82610637565b90508073ffffffffffffffffffffffffffffffffffffffff168373ffffffffffffffffffffffffffffffffffffffff160361051c576040517f08c379a000000000000000000000000000000000000000000000000000000000815260040161051390611cfc565b60405180910390fd5b8073ffffffffffffffffffffffffffffffffffffffff1661053b610b7f565b73ffffffffffffffffffffffffffffffffffffffff16148061056a575061056981610564610b7f565b610a3d565b5b6105a9576040517f08c379a00000000000000000000000000000000000000000000000000000000081526004016105a090611d8a565b60405180910390fd5b6105b38383610b86565b505050565b6105c96105c3610b7f565b82610c3c565b610608576040517f08c379a00000000000000000000000000000000000000000000000000000000081526004016105ff90611e18565b60405180910390fd5b610613838383610cd0565b505050565b61063283838360405180602001604052805f815250610976565b505050565b5f8060025f8481526020019081526020015f205f9054906101000a900473ffffffffffffffffffffffffffffffffffffffff1690505f73ffffffffffffffffffffffffffffffffffffffff168173ffffffffffffffffffffffffffffffffffffffff16036106da576040517f08c379a00000000000000000000000000000000000000000000000000000000081526004016106d190611e80565b60405180910390fd5b80915050919050565b5f8073ffffffffffffffffffffffffffffffffffffffff168273ffffffffffffffffffffffffffffffffffffffff1603610752576040517f08c379a000000000000000000000000000000000000000000000000000000000815260040161074990611f0e565b60405180910390fd5b60035f8373ffffffffffffffffffffffffffffffffffffffff1673ffffffffffffffffffffffffffffffffffffffff1681526020019081526020015f20549050919050565b5f805f838060200190518101906107ae9190611fca565b92509250925060075f9054906101000a900473ffffffffffffffffffffffffffffffffffffffff1673ffffffffffffffffffffffffffffffffffffffff163373ffffffffffffffffffffffffffffffffffffffff1614610843576040517f08c379a000000000000000000000000000000000000000000000000000000000815260040161083a906120b8565b60405180910390fd5b61084f86600654610f2b565b84600654600a546108609190612103565b8773ffffffffffffffffffffffffffffffffffffffff167e7fff67a6b031708b408c3b559e45768fe4bdaf2859977efc0f67836af45e378686866040516108a993929190612136565b60405180910390a460065f8154809291906108c390612180565b9190505550505050505050565b6060600180546108df90611c5c565b80601f016020809104026020016040519081016040528092919081815260200182805461090b90611c5c565b80156109565780601f1061092d57610100808354040283529160200191610956565b820191905f5260205f20905b81548152906001019060200180831161093957829003601f168201915b5050505050905090565b61097261096b610b7f565b83836110fa565b5050565b610987610981610b7f565b83610c3c565b6109c6576040517f08c379a00000000000000000000000000000000000000000000000000000000081526004016109bd90611e18565b60405180910390fd5b6109d284848484611261565b50505050565b60606109e382610b34565b5f6109ec6112bd565b90505f815111610a0a5760405180602001604052805f815250610a35565b80610a14846112d3565b604051602001610a25929190612201565b6040516020818303038152906040525b915050919050565b5f60055f8473ffffffffffffffffffffffffffffffffffffffff1673ffffffffffffffffffffffffffffffffffffffff1681526020019081526020015f205f8373ffffffffffffffffffffffffffffffffffffffff1673ffffffffffffffffffffffffffffffffffffffff1681526020019081526020015f205f9054906101000a900460ff16905092915050565b5f7f01ffc9a7000000000000000000000000000000000000000000000000000000007bffffffffffffffffffffffffffffffffffffffffffffffffffffffff1916827bffffffffffffffffffffffffffffffffffffffffffffffffffffffff1916149050919050565b610b3d8161142c565b610b7c576040517f08c379a0000000000000000000000000000000000000000000000000000000008152600401610b7390611e80565b60405180910390fd5b50565b5f33905090565b8160045f8381526020019081526020015f205f6101000a81548173ffffffffffffffffffffffffffffffffffffffff021916908373ffffffffffffffffffffffffffffffffffffffff160217905550808273ffffffffffffffffffffffffffffffffffffffff16610bf683610637565b73ffffffffffffffffffffffffffffffffffffffff167f8c5be1e5ebec7d5bd14f71427d1e84f3dd0314c0f7b2291e5b200ac8c7c3b92560405160405180910390a45050565b5f80610c4783610637565b90508073ffffffffffffffffffffffffffffffffffffffff168473ffffffffffffffffffffffffffffffffffffffff161480610c895750610c888185610a3d565b5b80610cc757508373ffffffffffffffffffffffffffffffffffffffff16610caf84610460565b73ffffffffffffffffffffffffffffffffffffffff16145b91505092915050565b8273ffffffffffffffffffffffffffffffffffffffff16610cf082610637565b73ffffffffffffffffffffffffffffffffffffffff1614610d46576040517f08c379a0000000000000000000000000000000000000000000000000000000008152600401610d3d90612294565b60405180910390fd5b5f73ffffffffffffffffffffffffffffffffffffffff168273ffffffffffffffffffffffffffffffffffffffff1603610db4576040517f08c379a0000000000000000000000000000000000000000000000000000000008152600401610dab90612322565b60405180910390fd5b610dbf838383611494565b610dc95f82610b86565b600160035f8573ffffffffffffffffffffffffffffffffffffffff1673ffffffffffffffffffffffffffffffffffffffff1681526020019081526020015f205f828254610e169190612340565b92505081905550600160035f8473ffffffffffffffffffffffffffffffffffffffff1673ffffffffffffffffffffffffffffffffffffffff1681526020019081526020015f205f828254610e6a9190612103565b925050819055508160025f8381526020019081526020015f205f6101000a81548173ffffffffffffffffffffffffffffffffffffffff021916908373ffffffffffffffffffffffffffffffffffffffff160217905550808273ffffffffffffffffffffffffffffffffffffffff168473ffffffffffffffffffffffffffffffffffffffff167fddf252ad1be2c89b69c2b068fc378daa952ba7f163c4a11628f55a4df523b3ef60405160405180910390a4610f26838383611499565b505050565b5f73ffffffffffffffffffffffffffffffffffffffff168273ffffffffffffffffffffffffffffffffffffffff1603610f99576040517f08c379a0000000000000000000000000000000000000000000000000000000008152600401610f90906123bd565b60405180910390fd5b610fa28161142c565b15610fe2576040517f08c379a0000000000000000000000000000000000000000000000000000000008152600401610fd990612425565b60405180910390fd5b610fed5f8383611494565b600160035f8473ffffffffffffffffffffffffffffffffffffffff1673ffffffffffffffffffffffffffffffffffffffff1681526020019081526020015f205f82825461103a9190612103565b925050819055508160025f8381526020019081526020015f205f6101000a81548173ffffffffffffffffffffffffffffffffffffffff021916908373ffffffffffffffffffffffffffffffffffffffff160217905550808273ffffffffffffffffffffffffffffffffffffffff165f73ffffffffffffffffffffffffffffffffffffffff167fddf252ad1be2c89b69c2b068fc378daa952ba7f163c4a11628f55a4df523b3ef60405160405180910390a46110f65f8383611499565b5050565b8173ffffffffffffffffffffffffffffffffffffffff168373ffffffffffffffffffffffffffffffffffffffff1603611168576040517f08c379a000000000000000000000000000000000000000000000000000000000815260040161115f9061248d565b60405180910390fd5b8060055f8573ffffffffffffffffffffffffffffffffffffffff1673ffffffffffffffffffffffffffffffffffffffff1681526020019081526020015f205f8473ffffffffffffffffffffffffffffffffffffffff1673ffffffffffffffffffffffffffffffffffffffff1681526020019081526020015f205f6101000a81548160ff0219169083151502179055508173ffffffffffffffffffffffffffffffffffffffff168373ffffffffffffffffffffffffffffffffffffffff167f17307eab39ab6107e8899845ad3d59bd9653f200f220920489ca2b5937696c318360405161125491906116ed565b60405180910390a3505050565b61126c848484610cd0565b6112788484848461149e565b6112b7576040517f08c379a00000000000000000000000000000000000000000000000000000000081526004016112ae9061251b565b60405180910390fd5b50505050565b606060405180602001604052805f815250905090565b60605f8203611319576040518060400160405280600181526020017f30000000000000000000000000000000000000000000000000000000000000008152509050611427565b5f8290505f5b5f821461134857808061133190612180565b915050600a826113419190612566565b915061131f565b5f8167ffffffffffffffff81111561136357611362611979565b5b6040519080825280601f01601f1916602001820160405280156113955781602001600182028036833780820191505090505b5090505b5f8514611420576001826113ad9190612340565b9150600a856113bc9190612596565b60306113c89190612103565b60f81b8183815181106113de576113dd6125c6565b5b60200101907effffffffffffffffffffffffffffffffffffffffffffffffffffffffffffff191690815f1a905350600a856114199190612566565b9450611399565b8093505050505b919050565b5f8073ffffffffffffffffffffffffffffffffffffffff1660025f8481526020019081526020015f205f9054906101000a900473ffffffffffffffffffffffffffffffffffffffff1673ffffffffffffffffffffffffffffffffffffffff1614159050919050565b505050565b505050565b5f6114be8473ffffffffffffffffffffffffffffffffffffffff16611620565b15611613578373ffffffffffffffffffffffffffffffffffffffff1663150b7a026114e7610b7f565b8786866040518563ffffffff1660e01b81526004016115099493929190612645565b6020604051808303815f875af192505050801561154457506040513d601f19601f8201168201806040525081019061154191906126a3565b60015b6115c3573d805f8114611572576040519150601f19603f3d011682016040523d82523d5f602084013e611577565b606091505b505f8151036115bb576040517f08c379a00000000000000000000000000000000000000000000000000000000081526004016115b29061251b565b60405180910390fd5b805181602001fd5b63150b7a0260e01b7bffffffffffffffffffffffffffffffffffffffffffffffffffffffff1916817bffffffffffffffffffffffffffffffffffffffffffffffffffffffff191614915050611618565b600190505b949350505050565b5f808273ffffffffffffffffffffffffffffffffffffffff163b119050919050565b5f604051905090565b5f80fd5b5f80fd5b5f7fffffffff0000000000000000000000000000000000000000000000000000000082169050919050565b61168781611653565b8114611691575f80fd5b50565b5f813590506116a28161167e565b92915050565b5f602082840312156116bd576116bc61164b565b5b5f6116ca84828501611694565b91505092915050565b5f8115159050919050565b6116e7816116d3565b82525050565b5f6020820190506117005f8301846116de565b92915050565b5f81519050919050565b5f82825260208201905092915050565b5f5b8381101561173d578082015181840152602081019050611722565b5f8484015250505050565b5f601f19601f8301169050919050565b5f61176282611706565b61176c8185611710565b935061177c818560208601611720565b61178581611748565b840191505092915050565b5f6020820190508181035f8301526117a88184611758565b905092915050565b5f819050919050565b6117c2816117b0565b81146117cc575f80fd5b50565b5f813590506117dd816117b9565b92915050565b5f602082840312156117f8576117f761164b565b5b5f611805848285016117cf565b91505092915050565b5f73ffffffffffffffffffffffffffffffffffffffff82169050919050565b5f6118378261180e565b9050919050565b6118478161182d565b82525050565b5f6020820190506118605f83018461183e565b92915050565b61186f8161182d565b8114611879575f80fd5b50565b5f8135905061188a81611866565b92915050565b5f80604083850312156118a6576118a561164b565b5b5f6118b38582860161187c565b92505060206118c4858286016117cf565b9150509250929050565b5f805f606084860312156118e5576118e461164b565b5b5f6118f28682870161187c565b93505060206119038682870161187c565b9250506040611914868287016117cf565b9150509250925092565b5f602082840312156119335761193261164b565b5b5f6119408482850161187c565b91505092915050565b611952816117b0565b82525050565b5f60208201905061196b5f830184611949565b92915050565b5f80fd5b5f80fd5b7f4e487b71000000000000000000000000000000000000000000000000000000005f52604160045260245ffd5b6119af82611748565b810181811067ffffffffffffffff821117156119ce576119cd611979565b5b80604052505050565b5f6119e0611642565b90506119ec82826119a6565b919050565b5f67ffffffffffffffff821115611a0b57611a0a611979565b5b611a1482611748565b9050602081019050919050565b828183375f83830152505050565b5f611a41611a3c846119f1565b6119d7565b905082815260208101848484011115611a5d57611a5c611975565b5b611a68848285611a21565b509392505050565b5f82601f830112611a8457611a83611971565b5b8135611a94848260208601611a2f565b91505092915050565b5f805f60608486031215611ab457611ab361164b565b5b5f611ac18682870161187c565b9350506020611ad2868287016117cf565b925050604084013567ffffffffffffffff811115611af357611af261164f565b5b611aff86828701611a70565b9150509250925092565b611b12816116d3565b8114611b1c575f80fd5b50565b5f81359050611b2d81611b09565b92915050565b5f8060408385031215611b4957611b4861164b565b5b5f611b568582860161187c565b9250506020611b6785828601611b1f565b9150509250929050565b5f805f8060808587031215611b8957611b8861164b565b5b5f611b968782880161187c565b9450506020611ba78782880161187c565b9350506040611bb8878288016117cf565b925050606085013567ffffffffffffffff811115611bd957611bd861164f565b5b611be587828801611a70565b91505092959194509250565b5f8060408385031215611c0757611c0661164b565b5b5f611c148582860161187c565b9250506020611c258582860161187c565b9150509250929050565b7f4e487b71000000000000000000000000000000000000000000000000000000005f52602260045260245ffd5b5f6002820490506001821680611c7357607f821691505b602082108103611c8657611c85611c2f565b5b50919050565b7f4552433732313a20617070726f76616c20746f2063757272656e74206f776e655f8201527f7200000000000000000000000000000000000000000000000000000000000000602082015250565b5f611ce6602183611710565b9150611cf182611c8c565b604082019050919050565b5f6020820190508181035f830152611d1381611cda565b9050919050565b7f4552433732313a20617070726f76652063616c6c6572206973206e6f7420746f5f8201527f6b656e206f776e6572206e6f7220617070726f76656420666f7220616c6c0000602082015250565b5f611d74603e83611710565b9150611d7f82611d1a565b604082019050919050565b5f6020820190508181035f830152611da181611d68565b9050919050565b7f4552433732313a2063616c6c6572206973206e6f7420746f6b656e206f776e655f8201527f72206e6f7220617070726f766564000000000000000000000000000000000000602082015250565b5f611e02602e83611710565b9150611e0d82611da8565b604082019050919050565b5f6020820190508181035f830152611e2f81611df6565b9050919050565b7f4552433732313a20696e76616c696420746f6b656e20494400000000000000005f82015250565b5f611e6a601883611710565b9150611e7582611e36565b602082019050919050565b5f6020820190508181035f830152611e9781611e5e565b9050919050565b7f4552433732313a2061646472657373207a65726f206973206e6f7420612076615f8201527f6c6964206f776e65720000000000000000000000000000000000000000000000602082015250565b5f611ef8602983611710565b9150611f0382611e9e565b604082019050919050565b5f6020820190508181035f830152611f2581611eec565b9050919050565b5f67ffffffffffffffff821115611f4657611f45611979565b5b611f4f82611748565b9050602081019050919050565b5f611f6e611f6984611f2c565b6119d7565b905082815260208101848484011115611f8a57611f89611975565b5b611f95848285611720565b509392505050565b5f82601f830112611fb157611fb0611971565b5b8151611fc1848260208601611f5c565b91505092915050565b5f805f60608486031215611fe157611fe061164b565b5b5f84015167ffffffffffffffff811115611ffe57611ffd61164f565b5b61200a86828701611f9d565b935050602084015167ffffffffffffffff81111561202b5761202a61164f565b5b61203786828701611f9d565b925050604084015167ffffffffffffffff8111156120585761205761164f565b5b61206486828701611f9d565b9150509250925092565b7f6f6e6c7920526f757465722063616e2063616c6c206d696e74210000000000005f82015250565b5f6120a2601a83611710565b91506120ad8261206e565b602082019050919050565b5f6020820190508181035f8301526120cf81612096565b9050919050565b7f4e487b71000000000000000000000000000000000000000000000000000000005f52601160045260245ffd5b5f61210d826117b0565b9150612118836117b0565b92508282019050808211156121305761212f6120d6565b5b92915050565b5f6060820190508181035f83015261214e8186611758565b905081810360208301526121628185611758565b905081810360408301526121768184611758565b9050949350505050565b5f61218a826117b0565b91507fffffffffffffffffffffffffffffffffffffffffffffffffffffffffffffffff82036121bc576121bb6120d6565b5b600182019050919050565b5f81905092915050565b5f6121db82611706565b6121e581856121c7565b93506121f5818560208601611720565b80840191505092915050565b5f61220c82856121d1565b915061221882846121d1565b91508190509392505050565b7f4552433732313a207472616e736665722066726f6d20696e636f7272656374205f8201527f6f776e6572000000000000000000000000000000000000000000000000000000602082015250565b5f61227e602583611710565b915061228982612224565b604082019050919050565b5f6020820190508181035f8301526122ab81612272565b9050919050565b7f4552433732313a207472616e7366657220746f20746865207a65726f206164645f8201527f7265737300000000000000000000000000000000000000000000000000000000602082015250565b5f61230c602483611710565b9150612317826122b2565b604082019050919050565b5f6020820190508181035f83015261233981612300565b9050919050565b5f61234a826117b0565b9150612355836117b0565b925082820390508181111561236d5761236c6120d6565b5b92915050565b7f4552433732313a206d696e7420746f20746865207a65726f20616464726573735f82015250565b5f6123a7602083611710565b91506123b282612373565b602082019050919050565b5f6020820190508181035f8301526123d48161239b565b9050919050565b7f4552433732313a20746f6b656e20616c7265616479206d696e746564000000005f82015250565b5f61240f601c83611710565b915061241a826123db565b602082019050919050565b5f6020820190508181035f83015261243c81612403565b9050919050565b7f4552433732313a20617070726f766520746f2063616c6c6572000000000000005f82015250565b5f612477601983611710565b915061248282612443565b602082019050919050565b5f6020820190508181035f8301526124a48161246b565b9050919050565b7f4552433732313a207472616e7366657220746f206e6f6e2045524337323152655f8201527f63656976657220696d706c656d656e7465720000000000000000000000000000602082015250565b5f612505603283611710565b9150612510826124ab565b604082019050919050565b5f6020820190508181035f830152612532816124f9565b9050919050565b7f4e487b71000000000000000000000000000000000000000000000000000000005f52601260045260245ffd5b5f612570826117b0565b915061257b836117b0565b92508261258b5761258a612539565b5b828204905092915050565b5f6125a0826117b0565b91506125ab836117b0565b9250826125bb576125ba612539565b5b828206905092915050565b7f4e487b71000000000000000000000000000000000000000000000000000000005f52603260045260245ffd5b5f81519050919050565b5f82825260208201905092915050565b5f612617826125f3565b61262181856125fd565b9350612631818560208601611720565b61263a81611748565b840191505092915050565b5f6080820190506126585f83018761183e565b612665602083018661183e565b6126726040830185611949565b8181036060830152612684818461260d565b905095945050505050565b5f8151905061269d8161167e565b92915050565b5f602082840312156126b8576126b761164b565b5b5f6126c58482850161268f565b9150509291505056fea264697066735822122023ecc886346442392629c3a7045c9251280e52476e930e628ee3bc9c2b98ed3964736f6c63430008150033",
  "linkReferences": {},
  "deployedLinkReferences": {}
}