{
  "_format": "hh-sol-artifact-1",
  "contractName": "SourceChainMinter",
  "sourceName": "contracts/SourceChainMinter.sol",
  "abi": [
    {
      "inputs": [
        {
          "internalType": "address",
          "name": "router",
          "type": "address"
        },
        {
          "internalType": "address",
          "name": "link",
          "type": "address"
        }
      ],
      "stateMutability": "nonpayable",
      "type": "constructor"
    },
    {
      "anonymous": false,
      "inputs": [
        {
          "indexed": false,
          "internalType": "bytes32",
          "name": "messageId",
          "type": "bytes32"
        }
      ],
      "name": "MessageSent",
      "type": "event"
    },
    {
      "inputs": [
        {
          "internalType": "uint64",
          "name": "destinationChainSelector",
          "type": "uint64"
        },
        {
          "internalType": "address",
          "name": "receiver",
          "type": "address"
        },
        {
          "internalType": "bool",
          "name": "isPayLink",
          "type": "bool"
        },
        {
          "internalType": "uint256",
          "name": "listingID",
          "type": "uint256"
        },
        {
          "internalType": "string",
          "name": "profileURL",
          "type": "string"
        },
        {
          "internalType": "string",
          "name": "email",
          "type": "string"
        },
        {
          "internalType": "string",
          "name": "resumeURL",
          "type": "string"
        }
      ],
      "name": "mint",
      "outputs": [],
      "stateMutability": "nonpayable",
      "type": "function"
    },
    {
      "stateMutability": "payable",
      "type": "receive"
    }
  ],
  "bytecode": "0x60c060405234801562000010575f80fd5b5060405162000ef638038062000ef68339818101604052810190620000369190620001b0565b8173ffffffffffffffffffffffffffffffffffffffff1660808173ffffffffffffffffffffffffffffffffffffffff16815250508073ffffffffffffffffffffffffffffffffffffffff1660a08173ffffffffffffffffffffffffffffffffffffffff168152505060a05173ffffffffffffffffffffffffffffffffffffffff1663095ea7b36080517fffffffffffffffffffffffffffffffffffffffffffffffffffffffffffffffff6040518363ffffffff1660e01b8152600401620000ff92919062000220565b6020604051808303815f875af11580156200011c573d5f803e3d5ffd5b505050506040513d601f19601f8201168201806040525081019062000142919062000285565b505050620002b5565b5f80fd5b5f73ffffffffffffffffffffffffffffffffffffffff82169050919050565b5f6200017a826200014f565b9050919050565b6200018c816200016e565b811462000197575f80fd5b50565b5f81519050620001aa8162000181565b92915050565b5f8060408385031215620001c957620001c86200014b565b5b5f620001d8858286016200019a565b9250506020620001eb858286016200019a565b9150509250929050565b62000200816200016e565b82525050565b5f819050919050565b6200021a8162000206565b82525050565b5f604082019050620002355f830185620001f5565b6200024460208301846200020f565b9392505050565b5f8115159050919050565b62000261816200024b565b81146200026c575f80fd5b50565b5f815190506200027f8162000256565b92915050565b5f602082840312156200029d576200029c6200014b565b5b5f620002ac848285016200026f565b91505092915050565b60805160a051610c11620002e55f395f6101a901525f81816101fb0152818161029e01526103400152610c115ff3fe608060405260043610610021575f3560e01c8063da483e371461002c57610028565b3661002857005b5f80fd5b348015610037575f80fd5b50610052600480360381019061004d919061069c565b610054565b005b5f83838360405160200161006a93929190610807565b60405160208183030381529060405290505f6040518060a00160405280896040516020016100989190610860565b60405160208183030381529060405281526020013388856040516024016100c1939291906108da565b6040516020818303038152906040527f94d008ef000000000000000000000000000000000000000000000000000000007bffffffffffffffffffffffffffffffffffffffffffffffffffffffff19166020820180517bffffffffffffffffffffffffffffffffffffffffffffffffffffffff838183161783525050505081526020015f67ffffffffffffffff81111561015d5761015c610578565b5b60405190808252806020026020018201604052801561019657816020015b610183610422565b81526020019060019003908161017b5790505b508152602001886101a7575f6101c9565b7f00000000000000000000000000000000000000000000000000000000000000005b73ffffffffffffffffffffffffffffffffffffffff16815260200160405180602001604052805f81525081525090505f7f000000000000000000000000000000000000000000000000000000000000000073ffffffffffffffffffffffffffffffffffffffff166320487ded8b846040518363ffffffff1660e01b8152600401610254929190610ae8565b602060405180830381865afa15801561026f573d5f803e3d5ffd5b505050506040513d601f19601f820116820180604052508101906102939190610b2a565b90505f881561033e577f000000000000000000000000000000000000000000000000000000000000000073ffffffffffffffffffffffffffffffffffffffff166396f4e9f98c856040518363ffffffff1660e01b81526004016102f7929190610ae8565b6020604051808303815f875af1158015610313573d5f803e3d5ffd5b505050506040513d601f19601f820116820180604052508101906103379190610b88565b90506103de565b7f000000000000000000000000000000000000000000000000000000000000000073ffffffffffffffffffffffffffffffffffffffff166396f4e9f9838d866040518463ffffffff1660e01b815260040161039a929190610ae8565b60206040518083038185885af11580156103b6573d5f803e3d5ffd5b50505050506040513d601f19601f820116820180604052508101906103db9190610b88565b90505b7f54791b38f3859327992a1ca0590ad3c0f08feba98d1a4f56ab0dca74d203392a8160405161040d9190610bc2565b60405180910390a15050505050505050505050565b60405180604001604052805f73ffffffffffffffffffffffffffffffffffffffff1681526020015f81525090565b5f604051905090565b5f80fd5b5f80fd5b5f67ffffffffffffffff82169050919050565b61047d81610461565b8114610487575f80fd5b50565b5f8135905061049881610474565b92915050565b5f73ffffffffffffffffffffffffffffffffffffffff82169050919050565b5f6104c78261049e565b9050919050565b6104d7816104bd565b81146104e1575f80fd5b50565b5f813590506104f2816104ce565b92915050565b5f8115159050919050565b61050c816104f8565b8114610516575f80fd5b50565b5f8135905061052781610503565b92915050565b5f819050919050565b61053f8161052d565b8114610549575f80fd5b50565b5f8135905061055a81610536565b92915050565b5f80fd5b5f80fd5b5f601f19601f8301169050919050565b7f4e487b71000000000000000000000000000000000000000000000000000000005f52604160045260245ffd5b6105ae82610568565b810181811067ffffffffffffffff821117156105cd576105cc610578565b5b80604052505050565b5f6105df610450565b90506105eb82826105a5565b919050565b5f67ffffffffffffffff82111561060a57610609610578565b5b61061382610568565b9050602081019050919050565b828183375f83830152505050565b5f61064061063b846105f0565b6105d6565b90508281526020810184848401111561065c5761065b610564565b5b610667848285610620565b509392505050565b5f82601f83011261068357610682610560565b5b813561069384826020860161062e565b91505092915050565b5f805f805f805f60e0888a0312156106b7576106b6610459565b5b5f6106c48a828b0161048a565b97505060206106d58a828b016104e4565b96505060406106e68a828b01610519565b95505060606106f78a828b0161054c565b945050608088013567ffffffffffffffff8111156107185761071761045d565b5b6107248a828b0161066f565b93505060a088013567ffffffffffffffff8111156107455761074461045d565b5b6107518a828b0161066f565b92505060c088013567ffffffffffffffff8111156107725761077161045d565b5b61077e8a828b0161066f565b91505092959891949750929550565b5f81519050919050565b5f82825260208201905092915050565b5f5b838110156107c45780820151818401526020810190506107a9565b5f8484015250505050565b5f6107d98261078d565b6107e38185610797565b93506107f38185602086016107a7565b6107fc81610568565b840191505092915050565b5f6060820190508181035f83015261081f81866107cf565b9050818103602083015261083381856107cf565b9050818103604083015261084781846107cf565b9050949350505050565b61085a816104bd565b82525050565b5f6020820190506108735f830184610851565b92915050565b6108828161052d565b82525050565b5f81519050919050565b5f82825260208201905092915050565b5f6108ac82610888565b6108b68185610892565b93506108c68185602086016107a7565b6108cf81610568565b840191505092915050565b5f6060820190506108ed5f830186610851565b6108fa6020830185610879565b818103604083015261090c81846108a2565b9050949350505050565b61091f81610461565b82525050565b5f82825260208201905092915050565b5f61093f82610888565b6109498185610925565b93506109598185602086016107a7565b61096281610568565b840191505092915050565b5f81519050919050565b5f82825260208201905092915050565b5f819050602082019050919050565b61099f816104bd565b82525050565b6109ae8161052d565b82525050565b604082015f8201516109c85f850182610996565b5060208201516109db60208501826109a5565b50505050565b5f6109ec83836109b4565b60408301905092915050565b5f602082019050919050565b5f610a0e8261096d565b610a188185610977565b9350610a2383610987565b805f5b83811015610a53578151610a3a88826109e1565b9750610a45836109f8565b925050600181019050610a26565b5085935050505092915050565b5f60a083015f8301518482035f860152610a7a8282610935565b91505060208301518482036020860152610a948282610935565b91505060408301518482036040860152610aae8282610a04565b9150506060830151610ac36060860182610996565b5060808301518482036080860152610adb8282610935565b9150508091505092915050565b5f604082019050610afb5f830185610916565b8181036020830152610b0d8184610a60565b90509392505050565b5f81519050610b2481610536565b92915050565b5f60208284031215610b3f57610b3e610459565b5b5f610b4c84828501610b16565b91505092915050565b5f819050919050565b610b6781610b55565b8114610b71575f80fd5b50565b5f81519050610b8281610b5e565b92915050565b5f60208284031215610b9d57610b9c610459565b5b5f610baa84828501610b74565b91505092915050565b610bbc81610b55565b82525050565b5f602082019050610bd55f830184610bb3565b9291505056fea26469706673582212205017f2677876183dca28317567abda2ccbc0ea5079602c8832c0e62f8f4a417264736f6c63430008150033",
  "linkReferences": {},
  "deployedLinkReferences": {}
}